:1000000045C0000060C000005EC000005CC0000091
:100010005AC0000058C0000056C0000054C0000084
:1000200052C0000050C000004EC000004CC0000094
:100030004AC0000048C0000046C0000044C00000A4
:1000400042C0000040C000003EC000003CC00000B4
:100050003AC0000038C0000036C0000034C00000C4
:1000600032C0000030C000002EC000002CC00000D4
:100070002AC0000028C0000026C0000024C00000E4
:1000800022C0000020C000001EC0000011241FBEBE
:10009000CFEFD0E4DEBFCDBF11E0A0E0B1E0EAE3F6
:1000A000F2E000E00BBF02C007900D92A630B1074E
:1000B000D9F721E0A6E0B1E001C01D92A630B20759
:1000C000E1F790D0B8C09CCF813081F0E1ECF0E056
:1000D000808188618083E2ECF0E0808186608083AB
:1000E00083E38093C4001092C5000895E9ECF0E02A
:1000F000808188618083EAECF0E080818660808383
:1001000083E38093CC001092CD000895813041F0BC
:10011000E0ECF0E080818823ECF78091C600089540
:10012000E8ECF0E080818823ECF78091CE00089520
:10013000181619065CF00895000021503109E1F706
:100140004F5F5F4F4817590729F4089540E050E08A
:1001500077E063E0272F362FEFCF5D9888B95E9A5E
:1001600000005E9882E090E0E3CF089581E0F5CF53
:10017000089584E690E0DCDF88E3EFDF86E0EDDFE2
:100180008FE0EBDF81E0E9DF8AE090E0D1CF0895F6
:100190005D9A88B95E9A00005E9881E090E0C8CFD1
:1001A0000895813118F48158D8CF08958155D5CF5D
:1001B00008950F931F93CF93DF93182FEB01D6DF92
:1001C0008881882351F001E0010F812FEADF8991B6
:1001D000DFDF102F88818111F6CFDF91CF911F9142
:1001E0000F91089582EE8AB98DE18BB98FEF87B9AF
:1001F00018B8BFDF80E068DFB9DF60E071E081E060
:10020000D8DFC0E000EC10E0CE3110F4CF5F09C0C1
:10021000F801808188232CF481E0C3DF80E076DF61
:10022000B7DFFFE926E881E0F15020408040E1F7A8
:0A02300000C00000E9CFF894FFCFF2
:06023A0048656C6C6F00CA
:00000001FF
